{
  "_format": "hh-sol-artifact-1",
  "contractName": "CreateVote",
  "sourceName": "contracts/CreateVote.sol",
  "abi": [
    {
      "inputs": [],
      "stateMutability": "payable",
      "type": "constructor"
    },
    {
      "inputs": [],
      "name": "getvotes",
      "outputs": [
        {
          "components": [
            {
              "internalType": "address",
              "name": "voter",
              "type": "address"
            },
            {
              "internalType": "string",
              "name": "userName",
              "type": "string"
            },
            {
              "internalType": "uint256",
              "name": "amount",
              "type": "uint256"
            },
            {
              "internalType": "uint256",
              "name": "timestamp",
              "type": "uint256"
            }
          ],
          "internalType": "struct CreateVote.Vote[]",
          "name": "",
          "type": "tuple[]"
        }
      ],
      "stateMutability": "view",
      "type": "function"
    },
    {
      "inputs": [
        {
          "internalType": "string",
          "name": "userName",
          "type": "string"
        }
      ],
      "name": "givevote",
      "outputs": [],
      "stateMutability": "payable",
      "type": "function"
    }
  ],
  "bytecode": "0x608060405233600160006101000a81548173ffffffffffffffffffffffffffffffffffffffff021916908373ffffffffffffffffffffffffffffffffffffffff160217905550610aa8806100546000396000f3fe6080604052600436106100295760003560e01c8063768cf6971461002e578063e519f5f114610059575b600080fd5b34801561003a57600080fd5b50610043610075565b6040516100509190610563565b60405180910390f35b610073600480360381019061006e91906106ce565b6101d0565b005b60606000805480602002602001604051908101604052809291908181526020016000905b828210156101c757838290600052602060002090600402016040518060800160405290816000820160009054906101000a900473ffffffffffffffffffffffffffffffffffffffff1673ffffffffffffffffffffffffffffffffffffffff1673ffffffffffffffffffffffffffffffffffffffff16815260200160018201805461012290610746565b80601f016020809104026020016040519081016040528092919081815260200182805461014e90610746565b801561019b5780601f106101705761010080835404028352916020019161019b565b820191906000526020600020905b81548152906001019060200180831161017e57829003601f168201915b505050505081526020016002820154815260200160038201548152505081526020019060010190610099565b50505050905090565b60003411610213576040517f08c379a000000000000000000000000000000000000000000000000000000000815260040161020a906107d4565b60405180910390fd5b600160009054906101000a900473ffffffffffffffffffffffffffffffffffffffff1673ffffffffffffffffffffffffffffffffffffffff166108fc349081150290604051600060405180830381858888f1935050505015801561027b573d6000803e3d6000fd5b50600060405180608001604052803373ffffffffffffffffffffffffffffffffffffffff16815260200183815260200134815260200142815250908060018154018082558091505060019003906000526020600020906004020160009091909190915060008201518160000160006101000a81548173ffffffffffffffffffffffffffffffffffffffff021916908373ffffffffffffffffffffffffffffffffffffffff160217905550602082015181600101908161033a91906109a0565b506040820151816002015560608201518160030155505050565b600081519050919050565b600082825260208201905092915050565b6000819050602082019050919050565b600073ffffffffffffffffffffffffffffffffffffffff82169050919050565b60006103ab82610380565b9050919050565b6103bb816103a0565b82525050565b600081519050919050565b600082825260208201905092915050565b60005b838110156103fb5780820151818401526020810190506103e0565b60008484015250505050565b6000601f19601f8301169050919050565b6000610423826103c1565b61042d81856103cc565b935061043d8185602086016103dd565b61044681610407565b840191505092915050565b6000819050919050565b61046481610451565b82525050565b600060808301600083015161048260008601826103b2565b506020830151848203602086015261049a8282610418565b91505060408301516104af604086018261045b565b5060608301516104c2606086018261045b565b508091505092915050565b60006104d9838361046a565b905092915050565b6000602082019050919050565b60006104f982610354565b610503818561035f565b93508360208202850161051585610370565b8060005b85811015610551578484038952815161053285826104cd565b945061053d836104e1565b925060208a01995050600181019050610519565b50829750879550505050505092915050565b6000602082019050818103600083015261057d81846104ee565b905092915050565b6000604051905090565b600080fd5b600080fd5b600080fd5b600080fd5b7f4e487b7100000000000000000000000000000000000000000000000000000000600052604160045260246000fd5b6105db82610407565b810181811067ffffffffffffffff821117156105fa576105f96105a3565b5b80604052505050565b600061060d610585565b905061061982826105d2565b919050565b600067ffffffffffffffff821115610639576106386105a3565b5b61064282610407565b9050602081019050919050565b82818337600083830152505050565b600061067161066c8461061e565b610603565b90508281526020810184848401111561068d5761068c61059e565b5b61069884828561064f565b509392505050565b600082601f8301126106b5576106b4610599565b5b81356106c584826020860161065e565b91505092915050565b6000602082840312156106e4576106e361058f565b5b600082013567ffffffffffffffff81111561070257610701610594565b5b61070e848285016106a0565b91505092915050565b7f4e487b7100000000000000000000000000000000000000000000000000000000600052602260045260246000fd5b6000600282049050600182168061075e57607f821691505b60208210810361077157610770610717565b5b50919050565b600082825260208201905092915050565b7f506c65617365207061792067726561746572207468616e203020657468657200600082015250565b60006107be601f83610777565b91506107c982610788565b602082019050919050565b600060208201905081810360008301526107ed816107b1565b9050919050565b60008190508160005260206000209050919050565b60006020601f8301049050919050565b600082821b905092915050565b6000600883026108567fffffffffffffffffffffffffffffffffffffffffffffffffffffffffffffffff82610819565b6108608683610819565b95508019841693508086168417925050509392505050565b6000819050919050565b600061089d61089861089384610451565b610878565b610451565b9050919050565b6000819050919050565b6108b783610882565b6108cb6108c3826108a4565b848454610826565b825550505050565b600090565b6108e06108d3565b6108eb8184846108ae565b505050565b5b8181101561090f576109046000826108d8565b6001810190506108f1565b5050565b601f82111561095457610925816107f4565b61092e84610809565b8101602085101561093d578190505b61095161094985610809565b8301826108f0565b50505b505050565b600082821c905092915050565b600061097760001984600802610959565b1980831691505092915050565b60006109908383610966565b9150826002028217905092915050565b6109a9826103c1565b67ffffffffffffffff8111156109c2576109c16105a3565b5b6109cc8254610746565b6109d7828285610913565b600060209050601f831160018114610a0a57600084156109f8578287015190505b610a028582610984565b865550610a6a565b601f198416610a18866107f4565b60005b82811015610a4057848901518255600182019150602085019450602081019050610a1b565b86831015610a5d5784890151610a59601f891682610966565b8355505b6001600288020188555050505b50505050505056fea2646970667358221220762ac1c7d2859c626cd7a74d86f7cad82b4889e1db58c3904a1d97d25663303e64736f6c63430008120033",
  "linkReferences": {},
  "deployedLinkReferences": {}
}