{
  "_format": "hh-sol-artifact-1",
  "contractName": "MovieRatings_V1",
  "sourceName": "contracts/MovieRatings_V1.sol",
  "abi": [
    {
      "inputs": [
        {
          "internalType": "uint256",
          "name": "movieId",
          "type": "uint256"
        }
      ],
      "name": "GetMovieReviews",
      "outputs": [
        {
          "components": [
            {
              "internalType": "address",
              "name": "useraddress",
              "type": "address"
            },
            {
              "internalType": "uint256",
              "name": "movieId",
              "type": "uint256"
            },
            {
              "internalType": "string",
              "name": "comment",
              "type": "string"
            },
            {
              "internalType": "uint256",
              "name": "rate",
              "type": "uint256"
            },
            {
              "internalType": "uint256",
              "name": "timestamp",
              "type": "uint256"
            }
          ],
          "internalType": "struct MovieRatings_V1.Rateing[]",
          "name": "",
          "type": "tuple[]"
        }
      ],
      "stateMutability": "view",
      "type": "function"
    },
    {
      "inputs": [
        {
          "internalType": "uint256",
          "name": "movieId",
          "type": "uint256"
        },
        {
          "internalType": "address",
          "name": "useraddress",
          "type": "address"
        }
      ],
      "name": "checkRatingExists",
      "outputs": [
        {
          "internalType": "bool",
          "name": "",
          "type": "bool"
        }
      ],
      "stateMutability": "view",
      "type": "function"
    },
    {
      "inputs": [
        {
          "internalType": "uint256",
          "name": "_movieId",
          "type": "uint256"
        }
      ],
      "name": "getMovieRating",
      "outputs": [
        {
          "components": [
            {
              "internalType": "uint256",
              "name": "movieId",
              "type": "uint256"
            },
            {
              "internalType": "uint256",
              "name": "totalRatings",
              "type": "uint256"
            },
            {
              "internalType": "uint256",
              "name": "avgRating",
              "type": "uint256"
            }
          ],
          "internalType": "struct MovieRatings_V1.Movie",
          "name": "",
          "type": "tuple"
        }
      ],
      "stateMutability": "view",
      "type": "function"
    },
    {
      "inputs": [
        {
          "internalType": "uint256",
          "name": "_movieId",
          "type": "uint256"
        },
        {
          "internalType": "string",
          "name": "_comment",
          "type": "string"
        },
        {
          "internalType": "uint256",
          "name": "_rate",
          "type": "uint256"
        },
        {
          "internalType": "address",
          "name": "useraddress",
          "type": "address"
        }
      ],
      "name": "rateMovie",
      "outputs": [],
      "stateMutability": "nonpayable",
      "type": "function"
    },
    {
      "inputs": [],
      "name": "test",
      "outputs": [
        {
          "internalType": "string",
          "name": "",
          "type": "string"
        }
      ],
      "stateMutability": "pure",
      "type": "function"
    }
  ],
  "bytecode": "0x608060405234801561001057600080fd5b5061159d806100206000396000f3fe608060405234801561001057600080fd5b50600436106100575760003560e01c8063323680e11461005c5780635ab3c72a1461008c57806393fc70bb146100bc57806397ebaf77146100d8578063f8a8fd6d14610108575b600080fd5b61007660048036038101906100719190610987565b610126565b6040516100839190610a05565b60405180910390f35b6100a660048036038101906100a19190610a7e565b61020d565b6040516100b39190610ad9565b60405180910390f35b6100d660048036038101906100d19190610c3a565b6102f4565b005b6100f260048036038101906100ed9190610987565b6105de565b6040516100ff9190610e83565b60405180910390f35b61011061089a565b60405161011d9190610eef565b60405180910390f35b61012e6108d7565b6001821015610172576040517f08c379a000000000000000000000000000000000000000000000000000000000815260040161016990610f5d565b60405180910390fd5b60008060008481526020019081526020016000206001015410156101cb576040517f08c379a00000000000000000000000000000000000000000000000000000000081526004016101c290610fc9565b60405180910390fd5b60008083815260200190815260200160002060405180606001604052908160008201548152602001600182015481526020016002820154815250509050919050565b600080600090505b6001805490508110156102e857836001828154811061023757610236610fe9565b5b9060005260206000209060050201600101541480156102c657508273ffffffffffffffffffffffffffffffffffffffff166001828154811061027c5761027b610fe9565b5b906000526020600020906005020160000160009054906101000a900473ffffffffffffffffffffffffffffffffffffffff1673ffffffffffffffffffffffffffffffffffffffff16145b156102d55760019150506102ee565b80806102e090611047565b915050610215565b50600090505b92915050565b60008411610337576040517f08c379a000000000000000000000000000000000000000000000000000000000815260040161032e90610f5d565b60405180910390fd5b600082101580156103495750600a8211155b610388576040517f08c379a000000000000000000000000000000000000000000000000000000000815260040161037f90611101565b60405180910390fd5b610392848261020d565b156103d2576040517f08c379a00000000000000000000000000000000000000000000000000000000081526004016103c990611193565b60405180910390fd5b60006040518060a001604052803373ffffffffffffffffffffffffffffffffffffffff168152602001868152602001858152602001848152602001428152509050600181908060018154018082558091505060019003906000526020600020906005020160009091909190915060008201518160000160006101000a81548173ffffffffffffffffffffffffffffffffffffffff021916908373ffffffffffffffffffffffffffffffffffffffff1602179055506020820151816001015560408201518160020190816104a591906113bf565b50606082015181600301556080820151816004015550506000806000878152602001908152602001600020600101540361052d57604051806060016040528086815260200160018152602001848152506000808781526020019081526020016000206000820151816000015560208201518160010155604082015181600201559050506105d7565b6000806000878152602001908152602001600020600101549050600080600088815260200190815260200160002060020154905060006001836105709190611491565b86848461057d91906114c5565b6105879190611491565b6105919190611536565b90506001836105a09190611491565b6000808a815260200190815260200160002060010181905550806000808a8152602001908152602001600020600201819055505050505b5050505050565b60606001821015610624576040517f08c379a000000000000000000000000000000000000000000000000000000000815260040161061b90610f5d565b60405180910390fd5b6000805b60018054905081101561068357836001828154811061064a57610649610fe9565b5b9060005260206000209060050201600101540361067057818061066c90611047565b9250505b808061067b90611047565b915050610628565b5060008167ffffffffffffffff8111156106a05761069f610b0f565b5b6040519080825280602002602001820160405280156106d957816020015b6106c66108f8565b8152602001906001900390816106be5790505b5090506000915060005b60018054905081101561088f57846001828154811061070557610704610fe9565b5b9060005260206000209060050201600101540361087c57600181815481106107305761072f610fe9565b5b90600052602060002090600502016040518060a00160405290816000820160009054906101000a900473ffffffffffffffffffffffffffffffffffffffff1673ffffffffffffffffffffffffffffffffffffffff1673ffffffffffffffffffffffffffffffffffffffff168152602001600182015481526020016002820180546107b9906111e2565b80601f01602080910402602001604051908101604052809291908181526020018280546107e5906111e2565b80156108325780601f1061080757610100808354040283529160200191610832565b820191906000526020600020905b81548152906001019060200180831161081557829003601f168201915b505050505081526020016003820154815260200160048201548152505082848151811061086257610861610fe9565b5b6020026020010181905250828061087890611047565b9350505b808061088790611047565b9150506106e3565b508092505050919050565b60606040518060400160405280601981526020017f48656c6c6f20576f726c642066726f6d20536f6c696469747900000000000000815250905090565b60405180606001604052806000815260200160008152602001600081525090565b6040518060a00160405280600073ffffffffffffffffffffffffffffffffffffffff168152602001600081526020016060815260200160008152602001600081525090565b6000604051905090565b600080fd5b600080fd5b6000819050919050565b61096481610951565b811461096f57600080fd5b50565b6000813590506109818161095b565b92915050565b60006020828403121561099d5761099c610947565b5b60006109ab84828501610972565b91505092915050565b6109bd81610951565b82525050565b6060820160008201516109d960008501826109b4565b5060208201516109ec60208501826109b4565b5060408201516109ff60408501826109b4565b50505050565b6000606082019050610a1a60008301846109c3565b92915050565b600073ffffffffffffffffffffffffffffffffffffffff82169050919050565b6000610a4b82610a20565b9050919050565b610a5b81610a40565b8114610a6657600080fd5b50565b600081359050610a7881610a52565b92915050565b60008060408385031215610a9557610a94610947565b5b6000610aa385828601610972565b9250506020610ab485828601610a69565b9150509250929050565b60008115159050919050565b610ad381610abe565b82525050565b6000602082019050610aee6000830184610aca565b92915050565b600080fd5b600080fd5b6000601f19601f8301169050919050565b7f4e487b7100000000000000000000000000000000000000000000000000000000600052604160045260246000fd5b610b4782610afe565b810181811067ffffffffffffffff82111715610b6657610b65610b0f565b5b80604052505050565b6000610b7961093d565b9050610b858282610b3e565b919050565b600067ffffffffffffffff821115610ba557610ba4610b0f565b5b610bae82610afe565b9050602081019050919050565b82818337600083830152505050565b6000610bdd610bd884610b8a565b610b6f565b905082815260208101848484011115610bf957610bf8610af9565b5b610c04848285610bbb565b509392505050565b600082601f830112610c2157610c20610af4565b5b8135610c31848260208601610bca565b91505092915050565b60008060008060808587031215610c5457610c53610947565b5b6000610c6287828801610972565b945050602085013567ffffffffffffffff811115610c8357610c8261094c565b5b610c8f87828801610c0c565b9350506040610ca087828801610972565b9250506060610cb187828801610a69565b91505092959194509250565b600081519050919050565b600082825260208201905092915050565b6000819050602082019050919050565b610cf281610a40565b82525050565b600081519050919050565b600082825260208201905092915050565b60005b83811015610d32578082015181840152602081019050610d17565b60008484015250505050565b6000610d4982610cf8565b610d538185610d03565b9350610d63818560208601610d14565b610d6c81610afe565b840191505092915050565b600060a083016000830151610d8f6000860182610ce9565b506020830151610da260208601826109b4565b5060408301518482036040860152610dba8282610d3e565b9150506060830151610dcf60608601826109b4565b506080830151610de260808601826109b4565b508091505092915050565b6000610df98383610d77565b905092915050565b6000602082019050919050565b6000610e1982610cbd565b610e238185610cc8565b935083602082028501610e3585610cd9565b8060005b85811015610e715784840389528151610e528582610ded565b9450610e5d83610e01565b925060208a01995050600181019050610e39565b50829750879550505050505092915050565b60006020820190508181036000830152610e9d8184610e0e565b905092915050565b600082825260208201905092915050565b6000610ec182610cf8565b610ecb8185610ea5565b9350610edb818560208601610d14565b610ee481610afe565b840191505092915050565b60006020820190508181036000830152610f098184610eb6565b905092915050565b7f4d6f766965204964206973207265717569726564000000000000000000000000600082015250565b6000610f47601483610ea5565b9150610f5282610f11565b602082019050919050565b60006020820190508181036000830152610f7681610f3a565b9050919050565b7f4e6f20726174696e677320666f756e6420666f722074686973206d6f76696500600082015250565b6000610fb3601f83610ea5565b9150610fbe82610f7d565b602082019050919050565b60006020820190508181036000830152610fe281610fa6565b9050919050565b7f4e487b7100000000000000000000000000000000000000000000000000000000600052603260045260246000fd5b7f4e487b7100000000000000000000000000000000000000000000000000000000600052601160045260246000fd5b600061105282610951565b91507fffffffffffffffffffffffffffffffffffffffffffffffffffffffffffffffff820361108457611083611018565b5b600182019050919050565b7f526174652076616c7565206d757374206265206265747765656e203020616e6460008201527f2031300000000000000000000000000000000000000000000000000000000000602082015250565b60006110eb602383610ea5565b91506110f68261108f565b604082019050919050565b6000602082019050818103600083015261111a816110de565b9050919050565b7f596f75206861766520616c72656164792072617465642074686973206d6f766960008201527f6500000000000000000000000000000000000000000000000000000000000000602082015250565b600061117d602183610ea5565b915061118882611121565b604082019050919050565b600060208201905081810360008301526111ac81611170565b9050919050565b7f4e487b7100000000000000000000000000000000000000000000000000000000600052602260045260246000fd5b600060028204905060018216806111fa57607f821691505b60208210810361120d5761120c6111b3565b5b50919050565b60008190508160005260206000209050919050565b60006020601f8301049050919050565b600082821b905092915050565b6000600883026112757fffffffffffffffffffffffffffffffffffffffffffffffffffffffffffffffff82611238565b61127f8683611238565b95508019841693508086168417925050509392505050565b6000819050919050565b60006112bc6112b76112b284610951565b611297565b610951565b9050919050565b6000819050919050565b6112d6836112a1565b6112ea6112e2826112c3565b848454611245565b825550505050565b600090565b6112ff6112f2565b61130a8184846112cd565b505050565b5b8181101561132e576113236000826112f7565b600181019050611310565b5050565b601f8211156113735761134481611213565b61134d84611228565b8101602085101561135c578190505b61137061136885611228565b83018261130f565b50505b505050565b600082821c905092915050565b600061139660001984600802611378565b1980831691505092915050565b60006113af8383611385565b9150826002028217905092915050565b6113c882610cf8565b67ffffffffffffffff8111156113e1576113e0610b0f565b5b6113eb82546111e2565b6113f6828285611332565b600060209050601f8311600181146114295760008415611417578287015190505b61142185826113a3565b865550611489565b601f19841661143786611213565b60005b8281101561145f5784890151825560018201915060208501945060208101905061143a565b8683101561147c5784890151611478601f891682611385565b8355505b6001600288020188555050505b505050505050565b600061149c82610951565b91506114a783610951565b92508282019050808211156114bf576114be611018565b5b92915050565b60006114d082610951565b91506114db83610951565b92508282026114e981610951565b91508282048414831517611500576114ff611018565b5b5092915050565b7f4e487b7100000000000000000000000000000000000000000000000000000000600052601260045260246000fd5b600061154182610951565b915061154c83610951565b92508261155c5761155b611507565b5b82820490509291505056fea26469706673582212204ef41d980f72c19d7e1eae23d76dd6f84701ee90e89ab25096274143a52db8a464736f6c63430008120033",
  "linkReferences": {},
  "deployedLinkReferences": {}
}