{
  "_format": "hh-sol-artifact-1",
  "contractName": "MovieRatings",
  "sourceName": "contracts/MovieRatings.sol",
  "abi": [
    {
      "inputs": [
        {
          "internalType": "uint256",
          "name": "_movieId",
          "type": "uint256"
        }
      ],
      "name": "GetMovieReviews",
      "outputs": [
        {
          "components": [
            {
              "internalType": "address",
              "name": "useraddress",
              "type": "address"
            },
            {
              "internalType": "uint256",
              "name": "movieId",
              "type": "uint256"
            },
            {
              "internalType": "string",
              "name": "comment",
              "type": "string"
            },
            {
              "internalType": "uint256",
              "name": "rate",
              "type": "uint256"
            },
            {
              "internalType": "uint256",
              "name": "timestamp",
              "type": "uint256"
            }
          ],
          "internalType": "struct MovieRatings.Rateing[]",
          "name": "",
          "type": "tuple[]"
        }
      ],
      "stateMutability": "view",
      "type": "function"
    },
    {
      "inputs": [
        {
          "internalType": "uint256",
          "name": "_movieId",
          "type": "uint256"
        }
      ],
      "name": "getMovieRating",
      "outputs": [
        {
          "internalType": "uint256",
          "name": "",
          "type": "uint256"
        },
        {
          "internalType": "uint256",
          "name": "",
          "type": "uint256"
        },
        {
          "internalType": "uint256",
          "name": "",
          "type": "uint256"
        }
      ],
      "stateMutability": "view",
      "type": "function"
    },
    {
      "inputs": [
        {
          "internalType": "uint256",
          "name": "_movieId",
          "type": "uint256"
        },
        {
          "internalType": "string",
          "name": "_comment",
          "type": "string"
        },
        {
          "internalType": "uint256",
          "name": "_rate",
          "type": "uint256"
        }
      ],
      "name": "rateMovie",
      "outputs": [],
      "stateMutability": "nonpayable",
      "type": "function"
    },
    {
      "inputs": [],
      "name": "testfunction",
      "outputs": [
        {
          "internalType": "string",
          "name": "",
          "type": "string"
        }
      ],
      "stateMutability": "pure",
      "type": "function"
    }
  ],
  "bytecode": "0x608060405234801561001057600080fd5b5061138e806100206000396000f3fe608060405234801561001057600080fd5b506004361061004c5760003560e01c80632dc774bc14610051578063323680e11461006d5780637136e2a91461009f57806397ebaf77146100bd575b600080fd5b61006b600480360381019061006691906109e1565b6100ed565b005b61008760048036038101906100829190610a50565b61038c565b60405161009693929190610a8c565b60405180910390f35b6100a761047d565b6040516100b49190610b42565b60405180910390f35b6100d760048036038101906100d29190610a50565b6104ba565b6040516100e49190610d36565b60405180910390f35b60008311610130576040517f08c379a000000000000000000000000000000000000000000000000000000000815260040161012790610da4565b60405180910390fd5b600081101580156101425750600a8111155b610181576040517f08c379a000000000000000000000000000000000000000000000000000000000815260040161017890610e36565b60405180910390fd5b60006040518060a001604052803373ffffffffffffffffffffffffffffffffffffffff168152602001858152602001848152602001838152602001428152509050600181908060018154018082558091505060019003906000526020600020906005020160009091909190915060008201518160000160006101000a81548173ffffffffffffffffffffffffffffffffffffffff021916908373ffffffffffffffffffffffffffffffffffffffff1602179055506020820151816001015560408201518160020190816102549190611062565b5060608201518160030155608082015181600401555050600080600086815260200190815260200160002060010154036102dc5760405180606001604052808581526020016001815260200183815250600080868152602001908152602001600020600082015181600001556020820151816001015560408201518160020155905050610386565b60008060008681526020019081526020016000206001015490506000806000878152602001908152602001600020600201549050600060018361031f9190611163565b85848461032c9190611197565b6103369190611163565b6103409190611208565b905060018361034f9190611163565b6000808981526020019081526020016000206001018190555080600080898152602001908152602001600020600201819055505050505b50505050565b600080600060018410156103d5576040517f08c379a00000000000000000000000000000000000000000000000000000000081526004016103cc90610da4565b60405180910390fd5b600080600086815260200190815260200160002060010154101561042e576040517f08c379a000000000000000000000000000000000000000000000000000000000815260040161042590611285565b60405180910390fd5b6000808581526020019081526020016000206000015460008086815260200190815260200160002060010154600080878152602001908152602001600020600201549250925092509193909250565b60606040518060400160405280601981526020017f48656c6c6f20576f726c642066726f6d20536f6c696469747900000000000000815250905090565b60606001821015610500576040517f08c379a00000000000000000000000000000000000000000000000000000000081526004016104f790610da4565b60405180910390fd5b6000805b6001805490508110156105ab578360405160200161052291906112c6565b604051602081830303815290604052805190602001206001828154811061054c5761054b6112e1565b5b90600052602060002090600502016001015460405160200161056e91906112c6565b604051602081830303815290604052805190602001200361059857818061059490611310565b9250505b80806105a390611310565b915050610504565b5060008167ffffffffffffffff8111156105c8576105c76108b6565b5b60405190808252806020026020018201604052801561060157816020015b6105ee61080c565b8152602001906001900390816105e65790505b5090506000805b600180549050811015610800578560405160200161062691906112c6565b60405160208183030381529060405280519060200120600182815481106106505761064f6112e1565b5b90600052602060002090600502016001015460405160200161067291906112c6565b60405160208183030381529060405280519060200120036107ed57600181815481106106a1576106a06112e1565b5b90600052602060002090600502016040518060a00160405290816000820160009054906101000a900473ffffffffffffffffffffffffffffffffffffffff1673ffffffffffffffffffffffffffffffffffffffff1673ffffffffffffffffffffffffffffffffffffffff1681526020016001820154815260200160028201805461072a90610e85565b80601f016020809104026020016040519081016040528092919081815260200182805461075690610e85565b80156107a35780601f10610778576101008083540402835291602001916107a3565b820191906000526020600020905b81548152906001019060200180831161078657829003601f168201915b50505050508152602001600382015481526020016004820154815250508383815181106107d3576107d26112e1565b5b602002602001018190525081806107e990611310565b9250505b80806107f890611310565b915050610608565b50819350505050919050565b6040518060a00160405280600073ffffffffffffffffffffffffffffffffffffffff168152602001600081526020016060815260200160008152602001600081525090565b6000604051905090565b600080fd5b600080fd5b6000819050919050565b61087881610865565b811461088357600080fd5b50565b6000813590506108958161086f565b92915050565b600080fd5b600080fd5b6000601f19601f8301169050919050565b7f4e487b7100000000000000000000000000000000000000000000000000000000600052604160045260246000fd5b6108ee826108a5565b810181811067ffffffffffffffff8211171561090d5761090c6108b6565b5b80604052505050565b6000610920610851565b905061092c82826108e5565b919050565b600067ffffffffffffffff82111561094c5761094b6108b6565b5b610955826108a5565b9050602081019050919050565b82818337600083830152505050565b600061098461097f84610931565b610916565b9050828152602081018484840111156109a05761099f6108a0565b5b6109ab848285610962565b509392505050565b600082601f8301126109c8576109c761089b565b5b81356109d8848260208601610971565b91505092915050565b6000806000606084860312156109fa576109f961085b565b5b6000610a0886828701610886565b935050602084013567ffffffffffffffff811115610a2957610a28610860565b5b610a35868287016109b3565b9250506040610a4686828701610886565b9150509250925092565b600060208284031215610a6657610a6561085b565b5b6000610a7484828501610886565b91505092915050565b610a8681610865565b82525050565b6000606082019050610aa16000830186610a7d565b610aae6020830185610a7d565b610abb6040830184610a7d565b949350505050565b600081519050919050565b600082825260208201905092915050565b60005b83811015610afd578082015181840152602081019050610ae2565b60008484015250505050565b6000610b1482610ac3565b610b1e8185610ace565b9350610b2e818560208601610adf565b610b37816108a5565b840191505092915050565b60006020820190508181036000830152610b5c8184610b09565b905092915050565b600081519050919050565b600082825260208201905092915050565b6000819050602082019050919050565b600073ffffffffffffffffffffffffffffffffffffffff82169050919050565b6000610bbb82610b90565b9050919050565b610bcb81610bb0565b82525050565b610bda81610865565b82525050565b600082825260208201905092915050565b6000610bfc82610ac3565b610c068185610be0565b9350610c16818560208601610adf565b610c1f816108a5565b840191505092915050565b600060a083016000830151610c426000860182610bc2565b506020830151610c556020860182610bd1565b5060408301518482036040860152610c6d8282610bf1565b9150506060830151610c826060860182610bd1565b506080830151610c956080860182610bd1565b508091505092915050565b6000610cac8383610c2a565b905092915050565b6000602082019050919050565b6000610ccc82610b64565b610cd68185610b6f565b935083602082028501610ce885610b80565b8060005b85811015610d245784840389528151610d058582610ca0565b9450610d1083610cb4565b925060208a01995050600181019050610cec565b50829750879550505050505092915050565b60006020820190508181036000830152610d508184610cc1565b905092915050565b7f4d6f766965204964206973207265717569726564000000000000000000000000600082015250565b6000610d8e601483610ace565b9150610d9982610d58565b602082019050919050565b60006020820190508181036000830152610dbd81610d81565b9050919050565b7f526174652076616c7565206d757374206265206265747765656e203020616e6460008201527f2031300000000000000000000000000000000000000000000000000000000000602082015250565b6000610e20602383610ace565b9150610e2b82610dc4565b604082019050919050565b60006020820190508181036000830152610e4f81610e13565b9050919050565b7f4e487b7100000000000000000000000000000000000000000000000000000000600052602260045260246000fd5b60006002820490506001821680610e9d57607f821691505b602082108103610eb057610eaf610e56565b5b50919050565b60008190508160005260206000209050919050565b60006020601f8301049050919050565b600082821b905092915050565b600060088302610f187fffffffffffffffffffffffffffffffffffffffffffffffffffffffffffffffff82610edb565b610f228683610edb565b95508019841693508086168417925050509392505050565b6000819050919050565b6000610f5f610f5a610f5584610865565b610f3a565b610865565b9050919050565b6000819050919050565b610f7983610f44565b610f8d610f8582610f66565b848454610ee8565b825550505050565b600090565b610fa2610f95565b610fad818484610f70565b505050565b5b81811015610fd157610fc6600082610f9a565b600181019050610fb3565b5050565b601f82111561101657610fe781610eb6565b610ff084610ecb565b81016020851015610fff578190505b61101361100b85610ecb565b830182610fb2565b50505b505050565b600082821c905092915050565b60006110396000198460080261101b565b1980831691505092915050565b60006110528383611028565b9150826002028217905092915050565b61106b82610ac3565b67ffffffffffffffff811115611084576110836108b6565b5b61108e8254610e85565b611099828285610fd5565b600060209050601f8311600181146110cc57600084156110ba578287015190505b6110c48582611046565b86555061112c565b601f1984166110da86610eb6565b60005b82811015611102578489015182556001820191506020850194506020810190506110dd565b8683101561111f578489015161111b601f891682611028565b8355505b6001600288020188555050505b505050505050565b7f4e487b7100000000000000000000000000000000000000000000000000000000600052601160045260246000fd5b600061116e82610865565b915061117983610865565b925082820190508082111561119157611190611134565b5b92915050565b60006111a282610865565b91506111ad83610865565b92508282026111bb81610865565b915082820484148315176111d2576111d1611134565b5b5092915050565b7f4e487b7100000000000000000000000000000000000000000000000000000000600052601260045260246000fd5b600061121382610865565b915061121e83610865565b92508261122e5761122d6111d9565b5b828204905092915050565b7f4e6f20726174696e677320666f756e6420666f722074686973206d6f76696500600082015250565b600061126f601f83610ace565b915061127a82611239565b602082019050919050565b6000602082019050818103600083015261129e81611262565b9050919050565b6000819050919050565b6112c06112bb82610865565b6112a5565b82525050565b60006112d282846112af565b60208201915081905092915050565b7f4e487b7100000000000000000000000000000000000000000000000000000000600052603260045260246000fd5b600061131b82610865565b91507fffffffffffffffffffffffffffffffffffffffffffffffffffffffffffffffff820361134d5761134c611134565b5b60018201905091905056fea2646970667358221220efb1d2b25172ba1b94d46d940a3f6f3e62119358b00014e7ea146e812c47ecd764736f6c63430008120033",
  "linkReferences": {},
  "deployedLinkReferences": {}
}