{
  "_format": "hh-sol-artifact-1",
  "contractName": "MovieRatings_V2",
  "sourceName": "contracts/MovieRatings_V2.sol",
  "abi": [
    {
      "inputs": [
        {
          "internalType": "uint256",
          "name": "movieId",
          "type": "uint256"
        }
      ],
      "name": "GetMovieReviews",
      "outputs": [
        {
          "components": [
            {
              "internalType": "address",
              "name": "useraddress",
              "type": "address"
            },
            {
              "internalType": "uint256",
              "name": "movieId",
              "type": "uint256"
            },
            {
              "internalType": "string",
              "name": "comment",
              "type": "string"
            },
            {
              "internalType": "uint256",
              "name": "rate",
              "type": "uint256"
            },
            {
              "internalType": "uint256",
              "name": "timestamp",
              "type": "uint256"
            }
          ],
          "internalType": "struct MovieRatings_V2.Rateing[]",
          "name": "",
          "type": "tuple[]"
        }
      ],
      "stateMutability": "view",
      "type": "function"
    },
    {
      "inputs": [
        {
          "internalType": "uint256",
          "name": "seriesId",
          "type": "uint256"
        }
      ],
      "name": "GetSeriesReviews",
      "outputs": [
        {
          "components": [
            {
              "internalType": "address",
              "name": "useraddress",
              "type": "address"
            },
            {
              "internalType": "uint256",
              "name": "seriesId",
              "type": "uint256"
            },
            {
              "internalType": "string",
              "name": "comment",
              "type": "string"
            },
            {
              "internalType": "uint256",
              "name": "rate",
              "type": "uint256"
            },
            {
              "internalType": "uint256",
              "name": "timestamp",
              "type": "uint256"
            }
          ],
          "internalType": "struct MovieRatings_V2.SeriesRateing[]",
          "name": "",
          "type": "tuple[]"
        }
      ],
      "stateMutability": "view",
      "type": "function"
    },
    {
      "inputs": [
        {
          "internalType": "uint256",
          "name": "_movieId",
          "type": "uint256"
        }
      ],
      "name": "getMovieRating",
      "outputs": [
        {
          "components": [
            {
              "internalType": "uint256",
              "name": "movieId",
              "type": "uint256"
            },
            {
              "internalType": "uint256",
              "name": "totalRatings",
              "type": "uint256"
            },
            {
              "internalType": "uint256",
              "name": "avgRating",
              "type": "uint256"
            }
          ],
          "internalType": "struct MovieRatings_V2.Movie",
          "name": "",
          "type": "tuple"
        }
      ],
      "stateMutability": "view",
      "type": "function"
    },
    {
      "inputs": [
        {
          "internalType": "uint256",
          "name": "_seriesId",
          "type": "uint256"
        }
      ],
      "name": "getSeriesRating",
      "outputs": [
        {
          "components": [
            {
              "internalType": "uint256",
              "name": "seriesId",
              "type": "uint256"
            },
            {
              "internalType": "uint256",
              "name": "totalRatings",
              "type": "uint256"
            },
            {
              "internalType": "uint256",
              "name": "avgRating",
              "type": "uint256"
            }
          ],
          "internalType": "struct MovieRatings_V2.Series",
          "name": "",
          "type": "tuple"
        }
      ],
      "stateMutability": "view",
      "type": "function"
    },
    {
      "inputs": [
        {
          "internalType": "uint256",
          "name": "movieId",
          "type": "uint256"
        },
        {
          "internalType": "address",
          "name": "useraddress",
          "type": "address"
        }
      ],
      "name": "isMovieRatedByUser",
      "outputs": [
        {
          "internalType": "bool",
          "name": "",
          "type": "bool"
        }
      ],
      "stateMutability": "view",
      "type": "function"
    },
    {
      "inputs": [
        {
          "internalType": "uint256",
          "name": "seriesId",
          "type": "uint256"
        },
        {
          "internalType": "address",
          "name": "useraddress",
          "type": "address"
        }
      ],
      "name": "isSeriesRatedByUser",
      "outputs": [
        {
          "internalType": "bool",
          "name": "",
          "type": "bool"
        }
      ],
      "stateMutability": "view",
      "type": "function"
    },
    {
      "inputs": [
        {
          "internalType": "uint256",
          "name": "_movieId",
          "type": "uint256"
        },
        {
          "internalType": "string",
          "name": "_comment",
          "type": "string"
        },
        {
          "internalType": "uint256",
          "name": "_rate",
          "type": "uint256"
        }
      ],
      "name": "rateMovie",
      "outputs": [],
      "stateMutability": "nonpayable",
      "type": "function"
    },
    {
      "inputs": [
        {
          "internalType": "uint256",
          "name": "_seriesId",
          "type": "uint256"
        },
        {
          "internalType": "string",
          "name": "_comment",
          "type": "string"
        },
        {
          "internalType": "uint256",
          "name": "_rate",
          "type": "uint256"
        }
      ],
      "name": "rateSeries",
      "outputs": [],
      "stateMutability": "nonpayable",
      "type": "function"
    }
  ],
  "bytecode": "0x608060405234801561001057600080fd5b50611ef9806100206000396000f3fe608060405234801561001057600080fd5b50600436106100885760003560e01c80637a91e9be1161005b5780637a91e9be1461013957806397ebaf7714610169578063d356805f14610199578063e78c2393146101b557610088565b80632dc774bc1461008d578063323680e1146100a957806335da6d11146100d95780633e76f0a114610109575b600080fd5b6100a760048036038101906100a2919061129b565b6101e5565b005b6100c360048036038101906100be919061130a565b610484565b6040516100d09190611388565b60405180910390f35b6100f360048036038101906100ee9190611401565b61056b565b604051610100919061145c565b60405180910390f35b610123600480360381019061011e919061130a565b610652565b60405161013091906114b9565b60405180910390f35b610153600480360381019061014e919061130a565b61073b565b604051610160919061169a565b60405180910390f35b610183600480360381019061017e919061130a565b6109f7565b60405161019091906117f4565b60405180910390f35b6101b360048036038101906101ae919061129b565b610cb3565b005b6101cf60048036038101906101ca9190611401565b610f58565b6040516101dc919061145c565b60405180910390f35b60008311610228576040517f08c379a000000000000000000000000000000000000000000000000000000000815260040161021f90611873565b60405180910390fd5b6000811015801561023a5750600a8111155b610279576040517f08c379a000000000000000000000000000000000000000000000000000000000815260040161027090611905565b60405180910390fd5b60006040518060a001604052803373ffffffffffffffffffffffffffffffffffffffff168152602001858152602001848152602001838152602001428152509050600181908060018154018082558091505060019003906000526020600020906005020160009091909190915060008201518160000160006101000a81548173ffffffffffffffffffffffffffffffffffffffff021916908373ffffffffffffffffffffffffffffffffffffffff16021790555060208201518160010155604082015181600201908161034c9190611b31565b5060608201518160030155608082015181600401555050600080600086815260200190815260200160002060010154036103d4576040518060600160405280858152602001600181526020018381525060008086815260200190815260200160002060008201518160000155602082015181600101556040820151816002015590505061047e565b6000806000868152602001908152602001600020600101549050600080600087815260200190815260200160002060020154905060006001836104179190611c32565b8584846104249190611c66565b61042e9190611c32565b6104389190611cd7565b90506001836104479190611c32565b6000808981526020019081526020016000206001018190555080600080898152602001908152602001600020600201819055505050505b50505050565b61048c61103f565b60018210156104d0576040517f08c379a00000000000000000000000000000000000000000000000000000000081526004016104c790611d54565b60405180910390fd5b6000806000848152602001908152602001600020600101541015610529576040517f08c379a000000000000000000000000000000000000000000000000000000000815260040161052090611dc0565b60405180910390fd5b60008083815260200190815260200160002060405180606001604052908160008201548152602001600182015481526020016002820154815250509050919050565b600080600090505b60018054905081101561064657836001828154811061059557610594611de0565b5b90600052602060002090600502016001015414801561062457508273ffffffffffffffffffffffffffffffffffffffff16600182815481106105da576105d9611de0565b5b906000526020600020906005020160000160009054906101000a900473ffffffffffffffffffffffffffffffffffffffff1673ffffffffffffffffffffffffffffffffffffffff16145b1561063357600191505061064c565b808061063e90611e0f565b915050610573565b50600090505b92915050565b61065a611060565b600182101561069e576040517f08c379a000000000000000000000000000000000000000000000000000000000815260040161069590611873565b60405180910390fd5b6000600260008481526020019081526020016000206001015410156106f8576040517f08c379a00000000000000000000000000000000000000000000000000000000081526004016106ef90611ea3565b60405180910390fd5b6002600083815260200190815260200160002060405180606001604052908160008201548152602001600182015481526020016002820154815250509050919050565b60606001821015610781576040517f08c379a000000000000000000000000000000000000000000000000000000000815260040161077890611873565b60405180910390fd5b6000805b6003805490508110156107e05783600382815481106107a7576107a6611de0565b5b906000526020600020906005020160010154036107cd5781806107c990611e0f565b9250505b80806107d890611e0f565b915050610785565b5060008167ffffffffffffffff8111156107fd576107fc611170565b5b60405190808252806020026020018201604052801561083657816020015b610823611081565b81526020019060019003908161081b5790505b5090506000915060005b6003805490508110156109ec57846003828154811061086257610861611de0565b5b906000526020600020906005020160010154036109d9576003818154811061088d5761088c611de0565b5b90600052602060002090600502016040518060a00160405290816000820160009054906101000a900473ffffffffffffffffffffffffffffffffffffffff1673ffffffffffffffffffffffffffffffffffffffff1673ffffffffffffffffffffffffffffffffffffffff1681526020016001820154815260200160028201805461091690611954565b80601f016020809104026020016040519081016040528092919081815260200182805461094290611954565b801561098f5780601f106109645761010080835404028352916020019161098f565b820191906000526020600020905b81548152906001019060200180831161097257829003601f168201915b50505050508152602001600382015481526020016004820154815250508284815181106109bf576109be611de0565b5b602002602001018190525082806109d590611e0f565b9350505b80806109e490611e0f565b915050610840565b508092505050919050565b60606001821015610a3d576040517f08c379a0000000000000000000000000000000000000000000000000000000008152600401610a3490611d54565b60405180910390fd5b6000805b600180549050811015610a9c578360018281548110610a6357610a62611de0565b5b90600052602060002090600502016001015403610a89578180610a8590611e0f565b9250505b8080610a9490611e0f565b915050610a41565b5060008167ffffffffffffffff811115610ab957610ab8611170565b5b604051908082528060200260200182016040528015610af257816020015b610adf6110c6565b815260200190600190039081610ad75790505b5090506000915060005b600180549050811015610ca8578460018281548110610b1e57610b1d611de0565b5b90600052602060002090600502016001015403610c955760018181548110610b4957610b48611de0565b5b90600052602060002090600502016040518060a00160405290816000820160009054906101000a900473ffffffffffffffffffffffffffffffffffffffff1673ffffffffffffffffffffffffffffffffffffffff1673ffffffffffffffffffffffffffffffffffffffff16815260200160018201548152602001600282018054610bd290611954565b80601f0160208091040260200160405190810160405280929190818152602001828054610bfe90611954565b8015610c4b5780601f10610c2057610100808354040283529160200191610c4b565b820191906000526020600020905b815481529060010190602001808311610c2e57829003601f168201915b5050505050815260200160038201548152602001600482015481525050828481518110610c7b57610c7a611de0565b5b60200260200101819052508280610c9190611e0f565b9350505b8080610ca090611e0f565b915050610afc565b508092505050919050565b60008311610cf6576040517f08c379a0000000000000000000000000000000000000000000000000000000008152600401610ced90611873565b60405180910390fd5b60008110158015610d085750600a8111155b610d47576040517f08c379a0000000000000000000000000000000000000000000000000000000008152600401610d3e90611905565b60405180910390fd5b60006040518060a001604052803373ffffffffffffffffffffffffffffffffffffffff168152602001858152602001848152602001838152602001428152509050600381908060018154018082558091505060019003906000526020600020906005020160009091909190915060008201518160000160006101000a81548173ffffffffffffffffffffffffffffffffffffffff021916908373ffffffffffffffffffffffffffffffffffffffff160217905550602082015181600101556040820151816002019081610e1a9190611b31565b50606082015181600301556080820151816004015550506000600260008681526020019081526020016000206001015403610ea4576040518060600160405280858152602001600181526020018381525060026000868152602001908152602001600020600082015181600001556020820151816001015560408201518160020155905050610f52565b6000600260008681526020019081526020016000206001015490506000600260008781526020019081526020016000206002015490506000600183610ee99190611c32565b858484610ef69190611c66565b610f009190611c32565b610f0a9190611cd7565b9050600183610f199190611c32565b60026000898152602001908152602001600020600101819055508060026000898152602001908152602001600020600201819055505050505b50505050565b600080600090505b600380549050811015611033578360038281548110610f8257610f81611de0565b5b90600052602060002090600502016001015414801561101157508273ffffffffffffffffffffffffffffffffffffffff1660038281548110610fc757610fc6611de0565b5b906000526020600020906005020160000160009054906101000a900473ffffffffffffffffffffffffffffffffffffffff1673ffffffffffffffffffffffffffffffffffffffff16145b15611020576001915050611039565b808061102b90611e0f565b915050610f60565b50600090505b92915050565b60405180606001604052806000815260200160008152602001600081525090565b60405180606001604052806000815260200160008152602001600081525090565b6040518060a00160405280600073ffffffffffffffffffffffffffffffffffffffff168152602001600081526020016060815260200160008152602001600081525090565b6040518060a00160405280600073ffffffffffffffffffffffffffffffffffffffff168152602001600081526020016060815260200160008152602001600081525090565b6000604051905090565b600080fd5b600080fd5b6000819050919050565b6111328161111f565b811461113d57600080fd5b50565b60008135905061114f81611129565b92915050565b600080fd5b600080fd5b6000601f19601f8301169050919050565b7f4e487b7100000000000000000000000000000000000000000000000000000000600052604160045260246000fd5b6111a88261115f565b810181811067ffffffffffffffff821117156111c7576111c6611170565b5b80604052505050565b60006111da61110b565b90506111e6828261119f565b919050565b600067ffffffffffffffff82111561120657611205611170565b5b61120f8261115f565b9050602081019050919050565b82818337600083830152505050565b600061123e611239846111eb565b6111d0565b90508281526020810184848401111561125a5761125961115a565b5b61126584828561121c565b509392505050565b600082601f83011261128257611281611155565b5b813561129284826020860161122b565b91505092915050565b6000806000606084860312156112b4576112b3611115565b5b60006112c286828701611140565b935050602084013567ffffffffffffffff8111156112e3576112e261111a565b5b6112ef8682870161126d565b925050604061130086828701611140565b9150509250925092565b6000602082840312156113205761131f611115565b5b600061132e84828501611140565b91505092915050565b6113408161111f565b82525050565b60608201600082015161135c6000850182611337565b50602082015161136f6020850182611337565b5060408201516113826040850182611337565b50505050565b600060608201905061139d6000830184611346565b92915050565b600073ffffffffffffffffffffffffffffffffffffffff82169050919050565b60006113ce826113a3565b9050919050565b6113de816113c3565b81146113e957600080fd5b50565b6000813590506113fb816113d5565b92915050565b6000806040838503121561141857611417611115565b5b600061142685828601611140565b9250506020611437858286016113ec565b9150509250929050565b60008115159050919050565b61145681611441565b82525050565b6000602082019050611471600083018461144d565b92915050565b60608201600082015161148d6000850182611337565b5060208201516114a06020850182611337565b5060408201516114b36040850182611337565b50505050565b60006060820190506114ce6000830184611477565b92915050565b600081519050919050565b600082825260208201905092915050565b6000819050602082019050919050565b611509816113c3565b82525050565b600081519050919050565b600082825260208201905092915050565b60005b8381101561154957808201518184015260208101905061152e565b60008484015250505050565b60006115608261150f565b61156a818561151a565b935061157a81856020860161152b565b6115838161115f565b840191505092915050565b600060a0830160008301516115a66000860182611500565b5060208301516115b96020860182611337565b50604083015184820360408601526115d18282611555565b91505060608301516115e66060860182611337565b5060808301516115f96080860182611337565b508091505092915050565b6000611610838361158e565b905092915050565b6000602082019050919050565b6000611630826114d4565b61163a81856114df565b93508360208202850161164c856114f0565b8060005b8581101561168857848403895281516116698582611604565b945061167483611618565b925060208a01995050600181019050611650565b50829750879550505050505092915050565b600060208201905081810360008301526116b48184611625565b905092915050565b600081519050919050565b600082825260208201905092915050565b6000819050602082019050919050565b600060a0830160008301516117006000860182611500565b5060208301516117136020860182611337565b506040830151848203604086015261172b8282611555565b91505060608301516117406060860182611337565b5060808301516117536080860182611337565b508091505092915050565b600061176a83836116e8565b905092915050565b6000602082019050919050565b600061178a826116bc565b61179481856116c7565b9350836020820285016117a6856116d8565b8060005b858110156117e257848403895281516117c3858261175e565b94506117ce83611772565b925060208a019950506001810190506117aa565b50829750879550505050505092915050565b6000602082019050818103600083015261180e818461177f565b905092915050565b600082825260208201905092915050565b7f5365726965732049642069732072657175697265640000000000000000000000600082015250565b600061185d601583611816565b915061186882611827565b602082019050919050565b6000602082019050818103600083015261188c81611850565b9050919050565b7f526174652076616c7565206d757374206265206265747765656e203020616e6460008201527f2031300000000000000000000000000000000000000000000000000000000000602082015250565b60006118ef602383611816565b91506118fa82611893565b604082019050919050565b6000602082019050818103600083015261191e816118e2565b9050919050565b7f4e487b7100000000000000000000000000000000000000000000000000000000600052602260045260246000fd5b6000600282049050600182168061196c57607f821691505b60208210810361197f5761197e611925565b5b50919050565b60008190508160005260206000209050919050565b60006020601f8301049050919050565b600082821b905092915050565b6000600883026119e77fffffffffffffffffffffffffffffffffffffffffffffffffffffffffffffffff826119aa565b6119f186836119aa565b95508019841693508086168417925050509392505050565b6000819050919050565b6000611a2e611a29611a248461111f565b611a09565b61111f565b9050919050565b6000819050919050565b611a4883611a13565b611a5c611a5482611a35565b8484546119b7565b825550505050565b600090565b611a71611a64565b611a7c818484611a3f565b505050565b5b81811015611aa057611a95600082611a69565b600181019050611a82565b5050565b601f821115611ae557611ab681611985565b611abf8461199a565b81016020851015611ace578190505b611ae2611ada8561199a565b830182611a81565b50505b505050565b600082821c905092915050565b6000611b0860001984600802611aea565b1980831691505092915050565b6000611b218383611af7565b9150826002028217905092915050565b611b3a8261150f565b67ffffffffffffffff811115611b5357611b52611170565b5b611b5d8254611954565b611b68828285611aa4565b600060209050601f831160018114611b9b5760008415611b89578287015190505b611b938582611b15565b865550611bfb565b601f198416611ba986611985565b60005b82811015611bd157848901518255600182019150602085019450602081019050611bac565b86831015611bee5784890151611bea601f891682611af7565b8355505b6001600288020188555050505b505050505050565b7f4e487b7100000000000000000000000000000000000000000000000000000000600052601160045260246000fd5b6000611c3d8261111f565b9150611c488361111f565b9250828201905080821115611c6057611c5f611c03565b5b92915050565b6000611c718261111f565b9150611c7c8361111f565b9250828202611c8a8161111f565b91508282048414831517611ca157611ca0611c03565b5b5092915050565b7f4e487b7100000000000000000000000000000000000000000000000000000000600052601260045260246000fd5b6000611ce28261111f565b9150611ced8361111f565b925082611cfd57611cfc611ca8565b5b828204905092915050565b7f4d6f766965204964206973207265717569726564000000000000000000000000600082015250565b6000611d3e601483611816565b9150611d4982611d08565b602082019050919050565b60006020820190508181036000830152611d6d81611d31565b9050919050565b7f4e6f20726174696e677320666f756e6420666f722074686973206d6f76696500600082015250565b6000611daa601f83611816565b9150611db582611d74565b602082019050919050565b60006020820190508181036000830152611dd981611d9d565b9050919050565b7f4e487b7100000000000000000000000000000000000000000000000000000000600052603260045260246000fd5b6000611e1a8261111f565b91507fffffffffffffffffffffffffffffffffffffffffffffffffffffffffffffffff8203611e4c57611e4b611c03565b5b600182019050919050565b7f4e6f20726174696e677320666f756e6420666f72207468697320736572696573600082015250565b6000611e8d602083611816565b9150611e9882611e57565b602082019050919050565b60006020820190508181036000830152611ebc81611e80565b905091905056fea26469706673582212207cee99fb7c613843536e1e07f24e3ed93309ad6d2a052291d883f9a6149d065a64736f6c63430008120033",
  "linkReferences": {},
  "deployedLinkReferences": {}
}