{
  "_format": "hh-sol-artifact-1",
  "contractName": "MovieRatings_V3",
  "sourceName": "contracts/MovieRatings_V3.sol",
  "abi": [
    {
      "inputs": [
        {
          "internalType": "uint256",
          "name": "movieId",
          "type": "uint256"
        }
      ],
      "name": "GetMovieReviews",
      "outputs": [
        {
          "components": [
            {
              "internalType": "address",
              "name": "useraddress",
              "type": "address"
            },
            {
              "internalType": "uint256",
              "name": "movieId",
              "type": "uint256"
            },
            {
              "internalType": "string",
              "name": "moviename",
              "type": "string"
            },
            {
              "internalType": "string",
              "name": "comment",
              "type": "string"
            },
            {
              "internalType": "uint256",
              "name": "rate",
              "type": "uint256"
            },
            {
              "internalType": "uint256",
              "name": "timestamp",
              "type": "uint256"
            }
          ],
          "internalType": "struct MovieRatings_V3.MovieRateing[]",
          "name": "",
          "type": "tuple[]"
        }
      ],
      "stateMutability": "view",
      "type": "function"
    },
    {
      "inputs": [
        {
          "internalType": "uint256",
          "name": "seriesId",
          "type": "uint256"
        }
      ],
      "name": "GetSeriesReviews",
      "outputs": [
        {
          "components": [
            {
              "internalType": "address",
              "name": "useraddress",
              "type": "address"
            },
            {
              "internalType": "uint256",
              "name": "seriesId",
              "type": "uint256"
            },
            {
              "internalType": "string",
              "name": "seriesname",
              "type": "string"
            },
            {
              "internalType": "string",
              "name": "comment",
              "type": "string"
            },
            {
              "internalType": "uint256",
              "name": "rate",
              "type": "uint256"
            },
            {
              "internalType": "uint256",
              "name": "timestamp",
              "type": "uint256"
            }
          ],
          "internalType": "struct MovieRatings_V3.SeriesRateing[]",
          "name": "",
          "type": "tuple[]"
        }
      ],
      "stateMutability": "view",
      "type": "function"
    },
    {
      "inputs": [],
      "name": "getLatestMovieReviews",
      "outputs": [
        {
          "components": [
            {
              "internalType": "address",
              "name": "useraddress",
              "type": "address"
            },
            {
              "internalType": "uint256",
              "name": "movieId",
              "type": "uint256"
            },
            {
              "internalType": "string",
              "name": "moviename",
              "type": "string"
            },
            {
              "internalType": "string",
              "name": "comment",
              "type": "string"
            },
            {
              "internalType": "uint256",
              "name": "rate",
              "type": "uint256"
            },
            {
              "internalType": "uint256",
              "name": "timestamp",
              "type": "uint256"
            }
          ],
          "internalType": "struct MovieRatings_V3.MovieRateing[]",
          "name": "",
          "type": "tuple[]"
        }
      ],
      "stateMutability": "view",
      "type": "function"
    },
    {
      "inputs": [],
      "name": "getLatestSeriesReviews",
      "outputs": [
        {
          "components": [
            {
              "internalType": "address",
              "name": "useraddress",
              "type": "address"
            },
            {
              "internalType": "uint256",
              "name": "seriesId",
              "type": "uint256"
            },
            {
              "internalType": "string",
              "name": "seriesname",
              "type": "string"
            },
            {
              "internalType": "string",
              "name": "comment",
              "type": "string"
            },
            {
              "internalType": "uint256",
              "name": "rate",
              "type": "uint256"
            },
            {
              "internalType": "uint256",
              "name": "timestamp",
              "type": "uint256"
            }
          ],
          "internalType": "struct MovieRatings_V3.SeriesRateing[]",
          "name": "",
          "type": "tuple[]"
        }
      ],
      "stateMutability": "view",
      "type": "function"
    },
    {
      "inputs": [
        {
          "internalType": "uint256",
          "name": "_movieId",
          "type": "uint256"
        }
      ],
      "name": "getMovieRating",
      "outputs": [
        {
          "components": [
            {
              "internalType": "uint256",
              "name": "movieId",
              "type": "uint256"
            },
            {
              "internalType": "uint256",
              "name": "totalRatings",
              "type": "uint256"
            },
            {
              "internalType": "uint256",
              "name": "avgRating",
              "type": "uint256"
            }
          ],
          "internalType": "struct MovieRatings_V3.Movie",
          "name": "",
          "type": "tuple"
        }
      ],
      "stateMutability": "view",
      "type": "function"
    },
    {
      "inputs": [
        {
          "internalType": "uint256",
          "name": "_seriesId",
          "type": "uint256"
        }
      ],
      "name": "getSeriesRating",
      "outputs": [
        {
          "components": [
            {
              "internalType": "uint256",
              "name": "seriesId",
              "type": "uint256"
            },
            {
              "internalType": "uint256",
              "name": "totalRatings",
              "type": "uint256"
            },
            {
              "internalType": "uint256",
              "name": "avgRating",
              "type": "uint256"
            }
          ],
          "internalType": "struct MovieRatings_V3.Series",
          "name": "",
          "type": "tuple"
        }
      ],
      "stateMutability": "view",
      "type": "function"
    },
    {
      "inputs": [
        {
          "internalType": "uint256",
          "name": "movieId",
          "type": "uint256"
        },
        {
          "internalType": "address",
          "name": "useraddress",
          "type": "address"
        }
      ],
      "name": "isMovieRatedByUser",
      "outputs": [
        {
          "internalType": "bool",
          "name": "",
          "type": "bool"
        }
      ],
      "stateMutability": "view",
      "type": "function"
    },
    {
      "inputs": [
        {
          "internalType": "uint256",
          "name": "seriesId",
          "type": "uint256"
        },
        {
          "internalType": "address",
          "name": "useraddress",
          "type": "address"
        }
      ],
      "name": "isSeriesRatedByUser",
      "outputs": [
        {
          "internalType": "bool",
          "name": "",
          "type": "bool"
        }
      ],
      "stateMutability": "view",
      "type": "function"
    },
    {
      "inputs": [
        {
          "internalType": "uint256",
          "name": "_movieId",
          "type": "uint256"
        },
        {
          "internalType": "string",
          "name": "_moviename",
          "type": "string"
        },
        {
          "internalType": "string",
          "name": "_comment",
          "type": "string"
        },
        {
          "internalType": "uint256",
          "name": "_rate",
          "type": "uint256"
        }
      ],
      "name": "rateMovie",
      "outputs": [],
      "stateMutability": "nonpayable",
      "type": "function"
    },
    {
      "inputs": [
        {
          "internalType": "uint256",
          "name": "_seriesId",
          "type": "uint256"
        },
        {
          "internalType": "string",
          "name": "_seriesname",
          "type": "string"
        },
        {
          "internalType": "string",
          "name": "_comment",
          "type": "string"
        },
        {
          "internalType": "uint256",
          "name": "_rate",
          "type": "uint256"
        }
      ],
      "name": "rateSeries",
      "outputs": [],
      "stateMutability": "nonpayable",
      "type": "function"
    }
  ],
  "bytecode": "0x608060405234801561001057600080fd5b506126a7806100206000396000f3fe608060405234801561001057600080fd5b506004361061009e5760003560e01c80637a91e9be116100665780637a91e9be1461016f57806397ebaf771461019f578063b7f98618146101cf578063e78c2393146101eb578063f315e59f1461021b5761009e565b8063323680e1146100a357806335da6d11146100d35780633e76f0a11461010357806374b528891461013357806377e2e41b14610151575b600080fd5b6100bd60048036038101906100b8919061186b565b610237565b6040516100ca91906118e9565b60405180910390f35b6100ed60048036038101906100e89190611962565b61031e565b6040516100fa91906119bd565b60405180910390f35b61011d6004803603810190610118919061186b565b610405565b60405161012a9190611a1a565b60405180910390f35b61013b6104ee565b6040516101489190611c26565b60405180910390f35b61015961079a565b6040516101669190611d9a565b60405180910390f35b6101896004803603810190610184919061186b565b610a46565b6040516101969190611d9a565b60405180910390f35b6101b960048036038101906101b4919061186b565b610d94565b6040516101c69190611c26565b60405180910390f35b6101e960048036038101906101e49190611ef1565b6110e2565b005b61020560048036038101906102009190611962565b6113a4565b60405161021291906119bd565b60405180910390f35b61023560048036038101906102309190611ef1565b61148b565b005b61023f611747565b6001821015610283576040517f08c379a000000000000000000000000000000000000000000000000000000000815260040161027a90611fed565b60405180910390fd5b60008060008481526020019081526020016000206001015410156102dc576040517f08c379a00000000000000000000000000000000000000000000000000000000081526004016102d390612059565b60405180910390fd5b60008083815260200190815260200160002060405180606001604052908160008201548152602001600182015481526020016002820154815250509050919050565b600080600090505b6001805490508110156103f957836001828154811061034857610347612079565b5b9060005260206000209060060201600101541480156103d757508273ffffffffffffffffffffffffffffffffffffffff166001828154811061038d5761038c612079565b5b906000526020600020906006020160000160009054906101000a900473ffffffffffffffffffffffffffffffffffffffff1673ffffffffffffffffffffffffffffffffffffffff16145b156103e65760019150506103ff565b80806103f1906120d7565b915050610326565b50600090505b92915050565b61040d611768565b6001821015610451576040517f08c379a00000000000000000000000000000000000000000000000000000000081526004016104489061216b565b60405180910390fd5b6000600260008481526020019081526020016000206001015410156104ab576040517f08c379a00000000000000000000000000000000000000000000000000000000081526004016104a2906121d7565b60405180910390fd5b6002600083815260200190815260200160002060405180606001604052908160008201548152602001600182015481526020016002820154815250509050919050565b6060600060018054905090506000600a82111561051957600a8261051291906121f7565b905061051e565b600090505b6000818361052c91906121f7565b67ffffffffffffffff81111561054557610544611dc6565b5b60405190808252806020026020018201604052801561057e57816020015b61056b611789565b8152602001906001900390816105635790505b50905060008290505b8381101561079057600181815481106105a3576105a2612079565b5b90600052602060002090600602016040518060c00160405290816000820160009054906101000a900473ffffffffffffffffffffffffffffffffffffffff1673ffffffffffffffffffffffffffffffffffffffff1673ffffffffffffffffffffffffffffffffffffffff1681526020016001820154815260200160028201805461062c9061225a565b80601f01602080910402602001604051908101604052809291908181526020018280546106589061225a565b80156106a55780601f1061067a576101008083540402835291602001916106a5565b820191906000526020600020905b81548152906001019060200180831161068857829003601f168201915b505050505081526020016003820180546106be9061225a565b80601f01602080910402602001604051908101604052809291908181526020018280546106ea9061225a565b80156107375780601f1061070c57610100808354040283529160200191610737565b820191906000526020600020905b81548152906001019060200180831161071a57829003601f168201915b505050505081526020016004820154815260200160058201548152505082848361076191906121f7565b8151811061077257610771612079565b5b60200260200101819052508080610788906120d7565b915050610587565b5080935050505090565b6060600060038054905090506000600a8211156107c557600a826107be91906121f7565b90506107ca565b600090505b600081836107d891906121f7565b67ffffffffffffffff8111156107f1576107f0611dc6565b5b60405190808252806020026020018201604052801561082a57816020015b6108176117d5565b81526020019060019003908161080f5790505b50905060008290505b83811015610a3c576003818154811061084f5761084e612079565b5b90600052602060002090600602016040518060c00160405290816000820160009054906101000a900473ffffffffffffffffffffffffffffffffffffffff1673ffffffffffffffffffffffffffffffffffffffff1673ffffffffffffffffffffffffffffffffffffffff168152602001600182015481526020016002820180546108d89061225a565b80601f01602080910402602001604051908101604052809291908181526020018280546109049061225a565b80156109515780601f1061092657610100808354040283529160200191610951565b820191906000526020600020905b81548152906001019060200180831161093457829003601f168201915b5050505050815260200160038201805461096a9061225a565b80601f01602080910402602001604051908101604052809291908181526020018280546109969061225a565b80156109e35780601f106109b8576101008083540402835291602001916109e3565b820191906000526020600020905b8154815290600101906020018083116109c657829003601f168201915b5050505050815260200160048201548152602001600582015481525050828483610a0d91906121f7565b81518110610a1e57610a1d612079565b5b60200260200101819052508080610a34906120d7565b915050610833565b5080935050505090565b60606001821015610a8c576040517f08c379a0000000000000000000000000000000000000000000000000000000008152600401610a839061216b565b60405180910390fd5b6000805b600380549050811015610aeb578360038281548110610ab257610ab1612079565b5b90600052602060002090600602016001015403610ad8578180610ad4906120d7565b9250505b8080610ae3906120d7565b915050610a90565b5060008167ffffffffffffffff811115610b0857610b07611dc6565b5b604051908082528060200260200182016040528015610b4157816020015b610b2e6117d5565b815260200190600190039081610b265790505b5090506000915060005b600380549050811015610d89578460038281548110610b6d57610b6c612079565b5b90600052602060002090600602016001015403610d765760038181548110610b9857610b97612079565b5b90600052602060002090600602016040518060c00160405290816000820160009054906101000a900473ffffffffffffffffffffffffffffffffffffffff1673ffffffffffffffffffffffffffffffffffffffff1673ffffffffffffffffffffffffffffffffffffffff16815260200160018201548152602001600282018054610c219061225a565b80601f0160208091040260200160405190810160405280929190818152602001828054610c4d9061225a565b8015610c9a5780601f10610c6f57610100808354040283529160200191610c9a565b820191906000526020600020905b815481529060010190602001808311610c7d57829003601f168201915b50505050508152602001600382018054610cb39061225a565b80601f0160208091040260200160405190810160405280929190818152602001828054610cdf9061225a565b8015610d2c5780601f10610d0157610100808354040283529160200191610d2c565b820191906000526020600020905b815481529060010190602001808311610d0f57829003601f168201915b5050505050815260200160048201548152602001600582015481525050828481518110610d5c57610d5b612079565b5b60200260200101819052508280610d72906120d7565b9350505b8080610d81906120d7565b915050610b4b565b508092505050919050565b60606001821015610dda576040517f08c379a0000000000000000000000000000000000000000000000000000000008152600401610dd190611fed565b60405180910390fd5b6000805b600180549050811015610e39578360018281548110610e0057610dff612079565b5b90600052602060002090600602016001015403610e26578180610e22906120d7565b9250505b8080610e31906120d7565b915050610dde565b5060008167ffffffffffffffff811115610e5657610e55611dc6565b5b604051908082528060200260200182016040528015610e8f57816020015b610e7c611789565b815260200190600190039081610e745790505b5090506000915060005b6001805490508110156110d7578460018281548110610ebb57610eba612079565b5b906000526020600020906006020160010154036110c45760018181548110610ee657610ee5612079565b5b90600052602060002090600602016040518060c00160405290816000820160009054906101000a900473ffffffffffffffffffffffffffffffffffffffff1673ffffffffffffffffffffffffffffffffffffffff1673ffffffffffffffffffffffffffffffffffffffff16815260200160018201548152602001600282018054610f6f9061225a565b80601f0160208091040260200160405190810160405280929190818152602001828054610f9b9061225a565b8015610fe85780601f10610fbd57610100808354040283529160200191610fe8565b820191906000526020600020905b815481529060010190602001808311610fcb57829003601f168201915b505050505081526020016003820180546110019061225a565b80601f016020809104026020016040519081016040528092919081815260200182805461102d9061225a565b801561107a5780601f1061104f5761010080835404028352916020019161107a565b820191906000526020600020905b81548152906001019060200180831161105d57829003601f168201915b50505050508152602001600482015481526020016005820154815250508284815181106110aa576110a9612079565b5b602002602001018190525082806110c0906120d7565b9350505b80806110cf906120d7565b915050610e99565b508092505050919050565b60008411611125576040517f08c379a000000000000000000000000000000000000000000000000000000000815260040161111c9061216b565b60405180910390fd5b600081101580156111375750600a8111155b611176576040517f08c379a000000000000000000000000000000000000000000000000000000000815260040161116d906122fd565b60405180910390fd5b60006040518060c001604052803373ffffffffffffffffffffffffffffffffffffffff168152602001868152602001858152602001848152602001838152602001428152509050600381908060018154018082558091505060019003906000526020600020906006020160009091909190915060008201518160000160006101000a81548173ffffffffffffffffffffffffffffffffffffffff021916908373ffffffffffffffffffffffffffffffffffffffff16021790555060208201518160010155604082015181600201908161124f91906124c9565b50606082015181600301908161126591906124c9565b506080820151816004015560a08201518160050155505060006002600087815260200190815260200160002060010154036112ef57604051806060016040528086815260200160018152602001838152506002600087815260200190815260200160002060008201518160000155602082015181600101556040820151816002015590505061139d565b6000600260008781526020019081526020016000206001015490506000600260008881526020019081526020016000206002015490506000600183611334919061259b565b85848461134191906125cf565b61134b919061259b565b6113559190612640565b9050600183611364919061259b565b600260008a81526020019081526020016000206001018190555080600260008a8152602001908152602001600020600201819055505050505b5050505050565b600080600090505b60038054905081101561147f5783600382815481106113ce576113cd612079565b5b90600052602060002090600602016001015414801561145d57508273ffffffffffffffffffffffffffffffffffffffff166003828154811061141357611412612079565b5b906000526020600020906006020160000160009054906101000a900473ffffffffffffffffffffffffffffffffffffffff1673ffffffffffffffffffffffffffffffffffffffff16145b1561146c576001915050611485565b8080611477906120d7565b9150506113ac565b50600090505b92915050565b600084116114ce576040517f08c379a00000000000000000000000000000000000000000000000000000000081526004016114c59061216b565b60405180910390fd5b600081101580156114e05750600a8111155b61151f576040517f08c379a0000000000000000000000000000000000000000000000000000000008152600401611516906122fd565b60405180910390fd5b60006040518060c001604052803373ffffffffffffffffffffffffffffffffffffffff168152602001868152602001858152602001848152602001838152602001428152509050600181908060018154018082558091505060019003906000526020600020906006020160009091909190915060008201518160000160006101000a81548173ffffffffffffffffffffffffffffffffffffffff021916908373ffffffffffffffffffffffffffffffffffffffff1602179055506020820151816001015560408201518160020190816115f891906124c9565b50606082015181600301908161160e91906124c9565b506080820151816004015560a082015181600501555050600080600087815260200190815260200160002060010154036116965760405180606001604052808681526020016001815260200183815250600080878152602001908152602001600020600082015181600001556020820151816001015560408201518160020155905050611740565b6000806000878152602001908152602001600020600101549050600080600088815260200190815260200160002060020154905060006001836116d9919061259b565b8584846116e691906125cf565b6116f0919061259b565b6116fa9190612640565b9050600183611709919061259b565b6000808a815260200190815260200160002060010181905550806000808a8152602001908152602001600020600201819055505050505b5050505050565b60405180606001604052806000815260200160008152602001600081525090565b60405180606001604052806000815260200160008152602001600081525090565b6040518060c00160405280600073ffffffffffffffffffffffffffffffffffffffff16815260200160008152602001606081526020016060815260200160008152602001600081525090565b6040518060c00160405280600073ffffffffffffffffffffffffffffffffffffffff16815260200160008152602001606081526020016060815260200160008152602001600081525090565b6000604051905090565b600080fd5b600080fd5b6000819050919050565b61184881611835565b811461185357600080fd5b50565b6000813590506118658161183f565b92915050565b6000602082840312156118815761188061182b565b5b600061188f84828501611856565b91505092915050565b6118a181611835565b82525050565b6060820160008201516118bd6000850182611898565b5060208201516118d06020850182611898565b5060408201516118e36040850182611898565b50505050565b60006060820190506118fe60008301846118a7565b92915050565b600073ffffffffffffffffffffffffffffffffffffffff82169050919050565b600061192f82611904565b9050919050565b61193f81611924565b811461194a57600080fd5b50565b60008135905061195c81611936565b92915050565b600080604083850312156119795761197861182b565b5b600061198785828601611856565b92505060206119988582860161194d565b9150509250929050565b60008115159050919050565b6119b7816119a2565b82525050565b60006020820190506119d260008301846119ae565b92915050565b6060820160008201516119ee6000850182611898565b506020820151611a016020850182611898565b506040820151611a146040850182611898565b50505050565b6000606082019050611a2f60008301846119d8565b92915050565b600081519050919050565b600082825260208201905092915050565b6000819050602082019050919050565b611a6a81611924565b82525050565b600081519050919050565b600082825260208201905092915050565b60005b83811015611aaa578082015181840152602081019050611a8f565b60008484015250505050565b6000601f19601f8301169050919050565b6000611ad282611a70565b611adc8185611a7b565b9350611aec818560208601611a8c565b611af581611ab6565b840191505092915050565b600060c083016000830151611b186000860182611a61565b506020830151611b2b6020860182611898565b5060408301518482036040860152611b438282611ac7565b91505060608301518482036060860152611b5d8282611ac7565b9150506080830151611b726080860182611898565b5060a0830151611b8560a0860182611898565b508091505092915050565b6000611b9c8383611b00565b905092915050565b6000602082019050919050565b6000611bbc82611a35565b611bc68185611a40565b935083602082028501611bd885611a51565b8060005b85811015611c145784840389528151611bf58582611b90565b9450611c0083611ba4565b925060208a01995050600181019050611bdc565b50829750879550505050505092915050565b60006020820190508181036000830152611c408184611bb1565b905092915050565b600081519050919050565b600082825260208201905092915050565b6000819050602082019050919050565b600060c083016000830151611c8c6000860182611a61565b506020830151611c9f6020860182611898565b5060408301518482036040860152611cb78282611ac7565b91505060608301518482036060860152611cd18282611ac7565b9150506080830151611ce66080860182611898565b5060a0830151611cf960a0860182611898565b508091505092915050565b6000611d108383611c74565b905092915050565b6000602082019050919050565b6000611d3082611c48565b611d3a8185611c53565b935083602082028501611d4c85611c64565b8060005b85811015611d885784840389528151611d698582611d04565b9450611d7483611d18565b925060208a01995050600181019050611d50565b50829750879550505050505092915050565b60006020820190508181036000830152611db48184611d25565b905092915050565b600080fd5b600080fd5b7f4e487b7100000000000000000000000000000000000000000000000000000000600052604160045260246000fd5b611dfe82611ab6565b810181811067ffffffffffffffff82111715611e1d57611e1c611dc6565b5b80604052505050565b6000611e30611821565b9050611e3c8282611df5565b919050565b600067ffffffffffffffff821115611e5c57611e5b611dc6565b5b611e6582611ab6565b9050602081019050919050565b82818337600083830152505050565b6000611e94611e8f84611e41565b611e26565b905082815260208101848484011115611eb057611eaf611dc1565b5b611ebb848285611e72565b509392505050565b600082601f830112611ed857611ed7611dbc565b5b8135611ee8848260208601611e81565b91505092915050565b60008060008060808587031215611f0b57611f0a61182b565b5b6000611f1987828801611856565b945050602085013567ffffffffffffffff811115611f3a57611f39611830565b5b611f4687828801611ec3565b935050604085013567ffffffffffffffff811115611f6757611f66611830565b5b611f7387828801611ec3565b9250506060611f8487828801611856565b91505092959194509250565b600082825260208201905092915050565b7f4d6f766965204964206973207265717569726564000000000000000000000000600082015250565b6000611fd7601483611f90565b9150611fe282611fa1565b602082019050919050565b6000602082019050818103600083015261200681611fca565b9050919050565b7f4e6f20726174696e677320666f756e6420666f722074686973206d6f76696500600082015250565b6000612043601f83611f90565b915061204e8261200d565b602082019050919050565b6000602082019050818103600083015261207281612036565b9050919050565b7f4e487b7100000000000000000000000000000000000000000000000000000000600052603260045260246000fd5b7f4e487b7100000000000000000000000000000000000000000000000000000000600052601160045260246000fd5b60006120e282611835565b91507fffffffffffffffffffffffffffffffffffffffffffffffffffffffffffffffff8203612114576121136120a8565b5b600182019050919050565b7f5365726965732049642069732072657175697265640000000000000000000000600082015250565b6000612155601583611f90565b91506121608261211f565b602082019050919050565b6000602082019050818103600083015261218481612148565b9050919050565b7f4e6f20726174696e677320666f756e6420666f72207468697320736572696573600082015250565b60006121c1602083611f90565b91506121cc8261218b565b602082019050919050565b600060208201905081810360008301526121f0816121b4565b9050919050565b600061220282611835565b915061220d83611835565b9250828203905081811115612225576122246120a8565b5b92915050565b7f4e487b7100000000000000000000000000000000000000000000000000000000600052602260045260246000fd5b6000600282049050600182168061227257607f821691505b6020821081036122855761228461222b565b5b50919050565b7f526174652076616c7565206d757374206265206265747765656e203020616e6460008201527f2031300000000000000000000000000000000000000000000000000000000000602082015250565b60006122e7602383611f90565b91506122f28261228b565b604082019050919050565b60006020820190508181036000830152612316816122da565b9050919050565b60008190508160005260206000209050919050565b60006020601f8301049050919050565b600082821b905092915050565b60006008830261237f7fffffffffffffffffffffffffffffffffffffffffffffffffffffffffffffffff82612342565b6123898683612342565b95508019841693508086168417925050509392505050565b6000819050919050565b60006123c66123c16123bc84611835565b6123a1565b611835565b9050919050565b6000819050919050565b6123e0836123ab565b6123f46123ec826123cd565b84845461234f565b825550505050565b600090565b6124096123fc565b6124148184846123d7565b505050565b5b818110156124385761242d600082612401565b60018101905061241a565b5050565b601f82111561247d5761244e8161231d565b61245784612332565b81016020851015612466578190505b61247a61247285612332565b830182612419565b50505b505050565b600082821c905092915050565b60006124a060001984600802612482565b1980831691505092915050565b60006124b9838361248f565b9150826002028217905092915050565b6124d282611a70565b67ffffffffffffffff8111156124eb576124ea611dc6565b5b6124f5825461225a565b61250082828561243c565b600060209050601f8311600181146125335760008415612521578287015190505b61252b85826124ad565b865550612593565b601f1984166125418661231d565b60005b8281101561256957848901518255600182019150602085019450602081019050612544565b868310156125865784890151612582601f89168261248f565b8355505b6001600288020188555050505b505050505050565b60006125a682611835565b91506125b183611835565b92508282019050808211156125c9576125c86120a8565b5b92915050565b60006125da82611835565b91506125e583611835565b92508282026125f381611835565b9150828204841483151761260a576126096120a8565b5b5092915050565b7f4e487b7100000000000000000000000000000000000000000000000000000000600052601260045260246000fd5b600061264b82611835565b915061265683611835565b92508261266657612665612611565b5b82820490509291505056fea26469706673582212207c0ccec2a231498bd5c78c878d4d71fb2e428f76054452ad96d2a1c7a3f2953d64736f6c63430008120033",
  "linkReferences": {},
  "deployedLinkReferences": {}
}